{
  "_format": "hh-sol-artifact-1",
  "contractName": "DynamicSvgNft",
  "sourceName": "Contracts/svgGenerator.sol",
  "abi": [
    {
      "inputs": [
        {
          "internalType": "address",
          "name": "priceFeedAddress",
          "type": "address"
        },
        {
          "internalType": "string",
          "name": "first_Img",
          "type": "string"
        }
      ],
      "stateMutability": "nonpayable",
      "type": "constructor"
    },
    {
      "anonymous": false,
      "inputs": [
        {
          "indexed": true,
          "internalType": "address",
          "name": "owner",
          "type": "address"
        },
        {
          "indexed": true,
          "internalType": "address",
          "name": "approved",
          "type": "address"
        },
        {
          "indexed": true,
          "internalType": "uint256",
          "name": "tokenId",
          "type": "uint256"
        }
      ],
      "name": "Approval",
      "type": "event"
    },
    {
      "anonymous": false,
      "inputs": [
        {
          "indexed": true,
          "internalType": "address",
          "name": "owner",
          "type": "address"
        },
        {
          "indexed": true,
          "internalType": "address",
          "name": "operator",
          "type": "address"
        },
        {
          "indexed": false,
          "internalType": "bool",
          "name": "approved",
          "type": "bool"
        }
      ],
      "name": "ApprovalForAll",
      "type": "event"
    },
    {
      "anonymous": false,
      "inputs": [
        {
          "indexed": true,
          "internalType": "uint256",
          "name": "tokenId",
          "type": "uint256"
        },
        {
          "indexed": false,
          "internalType": "int256",
          "name": "highValue",
          "type": "int256"
        }
      ],
      "name": "CreatedNFT",
      "type": "event"
    },
    {
      "anonymous": false,
      "inputs": [
        {
          "indexed": true,
          "internalType": "address",
          "name": "previousOwner",
          "type": "address"
        },
        {
          "indexed": true,
          "internalType": "address",
          "name": "newOwner",
          "type": "address"
        }
      ],
      "name": "OwnershipTransferred",
      "type": "event"
    },
    {
      "anonymous": false,
      "inputs": [
        {
          "indexed": true,
          "internalType": "address",
          "name": "from",
          "type": "address"
        },
        {
          "indexed": true,
          "internalType": "address",
          "name": "to",
          "type": "address"
        },
        {
          "indexed": true,
          "internalType": "uint256",
          "name": "tokenId",
          "type": "uint256"
        }
      ],
      "name": "Transfer",
      "type": "event"
    },
    {
      "inputs": [
        {
          "internalType": "string",
          "name": "svg",
          "type": "string"
        }
      ],
      "name": "JPEGToImageURI",
      "outputs": [
        {
          "internalType": "string",
          "name": "",
          "type": "string"
        }
      ],
      "stateMutability": "pure",
      "type": "function"
    },
    {
      "inputs": [
        {
          "internalType": "address",
          "name": "to",
          "type": "address"
        },
        {
          "internalType": "uint256",
          "name": "tokenId",
          "type": "uint256"
        }
      ],
      "name": "approve",
      "outputs": [],
      "stateMutability": "nonpayable",
      "type": "function"
    },
    {
      "inputs": [
        {
          "internalType": "address",
          "name": "owner",
          "type": "address"
        }
      ],
      "name": "balanceOf",
      "outputs": [
        {
          "internalType": "uint256",
          "name": "",
          "type": "uint256"
        }
      ],
      "stateMutability": "view",
      "type": "function"
    },
    {
      "inputs": [
        {
          "internalType": "uint256",
          "name": "tokenId",
          "type": "uint256"
        }
      ],
      "name": "getApproved",
      "outputs": [
        {
          "internalType": "address",
          "name": "",
          "type": "address"
        }
      ],
      "stateMutability": "view",
      "type": "function"
    },
    {
      "inputs": [],
      "name": "getPriceFeed",
      "outputs": [
        {
          "internalType": "contract AggregatorV3Interface",
          "name": "",
          "type": "address"
        }
      ],
      "stateMutability": "view",
      "type": "function"
    },
    {
      "inputs": [],
      "name": "get_Img",
      "outputs": [
        {
          "internalType": "string",
          "name": "",
          "type": "string"
        }
      ],
      "stateMutability": "view",
      "type": "function"
    },
    {
      "inputs": [
        {
          "internalType": "address",
          "name": "owner",
          "type": "address"
        },
        {
          "internalType": "address",
          "name": "operator",
          "type": "address"
        }
      ],
      "name": "isApprovedForAll",
      "outputs": [
        {
          "internalType": "bool",
          "name": "",
          "type": "bool"
        }
      ],
      "stateMutability": "view",
      "type": "function"
    },
    {
      "inputs": [
        {
          "internalType": "int256",
          "name": "highValue",
          "type": "int256"
        }
      ],
      "name": "mintNft",
      "outputs": [],
      "stateMutability": "nonpayable",
      "type": "function"
    },
    {
      "inputs": [],
      "name": "name",
      "outputs": [
        {
          "internalType": "string",
          "name": "",
          "type": "string"
        }
      ],
      "stateMutability": "view",
      "type": "function"
    },
    {
      "inputs": [],
      "name": "owner",
      "outputs": [
        {
          "internalType": "address",
          "name": "",
          "type": "address"
        }
      ],
      "stateMutability": "view",
      "type": "function"
    },
    {
      "inputs": [
        {
          "internalType": "uint256",
          "name": "tokenId",
          "type": "uint256"
        }
      ],
      "name": "ownerOf",
      "outputs": [
        {
          "internalType": "address",
          "name": "",
          "type": "address"
        }
      ],
      "stateMutability": "view",
      "type": "function"
    },
    {
      "inputs": [],
      "name": "renounceOwnership",
      "outputs": [],
      "stateMutability": "nonpayable",
      "type": "function"
    },
    {
      "inputs": [
        {
          "internalType": "address",
          "name": "from",
          "type": "address"
        },
        {
          "internalType": "address",
          "name": "to",
          "type": "address"
        },
        {
          "internalType": "uint256",
          "name": "tokenId",
          "type": "uint256"
        }
      ],
      "name": "safeTransferFrom",
      "outputs": [],
      "stateMutability": "nonpayable",
      "type": "function"
    },
    {
      "inputs": [
        {
          "internalType": "address",
          "name": "from",
          "type": "address"
        },
        {
          "internalType": "address",
          "name": "to",
          "type": "address"
        },
        {
          "internalType": "uint256",
          "name": "tokenId",
          "type": "uint256"
        },
        {
          "internalType": "bytes",
          "name": "_data",
          "type": "bytes"
        }
      ],
      "name": "safeTransferFrom",
      "outputs": [],
      "stateMutability": "nonpayable",
      "type": "function"
    },
    {
      "inputs": [
        {
          "internalType": "address",
          "name": "operator",
          "type": "address"
        },
        {
          "internalType": "bool",
          "name": "approved",
          "type": "bool"
        }
      ],
      "name": "setApprovalForAll",
      "outputs": [],
      "stateMutability": "nonpayable",
      "type": "function"
    },
    {
      "inputs": [
        {
          "internalType": "bytes4",
          "name": "interfaceId",
          "type": "bytes4"
        }
      ],
      "name": "supportsInterface",
      "outputs": [
        {
          "internalType": "bool",
          "name": "",
          "type": "bool"
        }
      ],
      "stateMutability": "view",
      "type": "function"
    },
    {
      "inputs": [],
      "name": "symbol",
      "outputs": [
        {
          "internalType": "string",
          "name": "",
          "type": "string"
        }
      ],
      "stateMutability": "view",
      "type": "function"
    },
    {
      "inputs": [
        {
          "internalType": "uint256",
          "name": "tokenId",
          "type": "uint256"
        }
      ],
      "name": "tokenURI",
      "outputs": [
        {
          "internalType": "string",
          "name": "",
          "type": "string"
        }
      ],
      "stateMutability": "view",
      "type": "function"
    },
    {
      "inputs": [
        {
          "internalType": "address",
          "name": "from",
          "type": "address"
        },
        {
          "internalType": "address",
          "name": "to",
          "type": "address"
        },
        {
          "internalType": "uint256",
          "name": "tokenId",
          "type": "uint256"
        }
      ],
      "name": "transferFrom",
      "outputs": [],
      "stateMutability": "nonpayable",
      "type": "function"
    },
    {
      "inputs": [
        {
          "internalType": "address",
          "name": "newOwner",
          "type": "address"
        }
      ],
      "name": "transferOwnership",
      "outputs": [],
      "stateMutability": "nonpayable",
      "type": "function"
    }
  ],
  "bytecode": "0x60a06040523480156200001157600080fd5b5060405162003e5c38038062003e5c833981810160405281019062000037919062000719565b6040518060400160405280600d81526020017f4c7563726174697665204e4654000000000000000000000000000000000000008152506040518060400160405280600381526020017f4c634e00000000000000000000000000000000000000000000000000000000008152508160009080519060200190620000bb92919062000467565b508060019080519060200190620000d492919062000467565b505050620000f7620000eb6200016760201b60201c565b6200016f60201b60201c565b60006007819055508173ffffffffffffffffffffffffffffffffffffffff1660808173ffffffffffffffffffffffffffffffffffffffff1660601b8152505062000147816200023560201b60201c565b600890805190602001906200015e92919062000467565b505050620009d0565b600033905090565b6000600660009054906101000a900473ffffffffffffffffffffffffffffffffffffffff16905081600660006101000a81548173ffffffffffffffffffffffffffffffffffffffff021916908373ffffffffffffffffffffffffffffffffffffffff1602179055508173ffffffffffffffffffffffffffffffffffffffff168173ffffffffffffffffffffffffffffffffffffffff167f8be0079c531659141344cd1fd0a4f28419497f9722a3daafe3b4186f6b6457e060405160405180910390a35050565b606060006040518060400160405280601781526020017f646174613a696d6167652f6a7065673b6261736536342c00000000000000000081525090506000620002aa846040516020016200028a9190620007cc565b604051602081830303815290604052620002d960201b62000fc51760201c565b90508181604051602001620002c1929190620007e5565b60405160208183030381529060405292505050919050565b6060600082511415620002fe5760405180602001604052806000815250905062000462565b600060405180606001604052806040815260200162003e1c604091399050600060036002855162000330919062000846565b6200033c9190620008d2565b60046200034a91906200090a565b905060006020826200035d919062000846565b67ffffffffffffffff811115620003795762000378620005ab565b5b6040519080825280601f01601f191660200182016040528015620003ac5781602001600182028036833780820191505090505b509050818152600183018586518101602084015b818310156200041d576003830192508251603f8160121c168501518253600182019150603f81600c1c168501518253600182019150603f8160061c168501518253600182019150603f8116850151825360018201915050620003c0565b6003895106600181146200043a57600281146200044b5762000456565b613d3d60f01b600283035262000456565b603d60f81b60018303525b50505050508093505050505b919050565b82805462000475906200099a565b90600052602060002090601f016020900481019282620004995760008555620004e5565b82601f10620004b457805160ff1916838001178555620004e5565b82800160010185558215620004e5579182015b82811115620004e4578251825591602001919060010190620004c7565b5b509050620004f49190620004f8565b5090565b5b8082111562000513576000816000905550600101620004f9565b5090565b6000604051905090565b600080fd5b600080fd5b600073ffffffffffffffffffffffffffffffffffffffff82169050919050565b600062000558826200052b565b9050919050565b6200056a816200054b565b81146200057657600080fd5b50565b6000815190506200058a816200055f565b92915050565b600080fd5b600080fd5b6000601f19601f8301169050919050565b7f4e487b7100000000000000000000000000000000000000000000000000000000600052604160045260246000fd5b620005e5826200059a565b810181811067ffffffffffffffff82111715620006075762000606620005ab565b5b80604052505050565b60006200061c62000517565b90506200062a8282620005da565b919050565b600067ffffffffffffffff8211156200064d576200064c620005ab565b5b62000658826200059a565b9050602081019050919050565b60005b838110156200068557808201518184015260208101905062000668565b8381111562000695576000848401525b50505050565b6000620006b2620006ac846200062f565b62000610565b905082815260208101848484011115620006d157620006d062000595565b5b620006de84828562000665565b509392505050565b600082601f830112620006fe57620006fd62000590565b5b8151620007108482602086016200069b565b91505092915050565b6000806040838503121562000733576200073262000521565b5b6000620007438582860162000579565b925050602083015167ffffffffffffffff81111562000767576200076662000526565b5b6200077585828601620006e6565b9150509250929050565b600081519050919050565b600081905092915050565b6000620007a2826200077f565b620007ae81856200078a565b9350620007c081856020860162000665565b80840191505092915050565b6000620007da828462000795565b915081905092915050565b6000620007f3828562000795565b915062000801828462000795565b91508190509392505050565b6000819050919050565b7f4e487b7100000000000000000000000000000000000000000000000000000000600052601160045260246000fd5b600062000853826200080d565b915062000860836200080d565b9250827fffffffffffffffffffffffffffffffffffffffffffffffffffffffffffffffff0382111562000898576200089762000817565b5b828201905092915050565b7f4e487b7100000000000000000000000000000000000000000000000000000000600052601260045260246000fd5b6000620008df826200080d565b9150620008ec836200080d565b925082620008ff57620008fe620008a3565b5b828204905092915050565b600062000917826200080d565b915062000924836200080d565b9250817fffffffffffffffffffffffffffffffffffffffffffffffffffffffffffffffff048311821515161562000960576200095f62000817565b5b828202905092915050565b7f4e487b7100000000000000000000000000000000000000000000000000000000600052602260045260246000fd5b60006002820490506001821680620009b357607f821691505b60208210811415620009ca57620009c96200096b565b5b50919050565b60805160601c613426620009f660003960008181610b330152610c1d01526134266000f3fe608060405234801561001057600080fd5b506004361061012c5760003560e01c8063715018a6116100ad578063b88d4fde11610071578063b88d4fde1461032f578063c87b56dd1461034b578063e226cb291461037b578063e985e9c514610399578063f2fde38b146103c95761012c565b8063715018a6146102af5780638da5cb5b146102b957806395d89b41146102d75780639e87a5cd146102f5578063a22cb465146103135761012c565b806323b872dd116100f457806323b872dd146101e757806342842e0e146102035780635b8998281461021f5780636352211e1461024f57806370a082311461027f5761012c565b806301ffc9a71461013157806306fdde0314610161578063081812fc1461017f578063095ea7b3146101af5780631e930812146101cb575b600080fd5b61014b60048036038101906101469190611d69565b6103e5565b6040516101589190611db1565b60405180910390f35b6101696104c7565b6040516101769190611e65565b60405180910390f35b61019960048036038101906101949190611ebd565b610559565b6040516101a69190611f2b565b60405180910390f35b6101c960048036038101906101c49190611f72565b6105de565b005b6101e560048036038101906101e09190611fe8565b6106f6565b005b61020160048036038101906101fc9190612015565b61076e565b005b61021d60048036038101906102189190612015565b6107ce565b005b6102396004803603810190610234919061219d565b6107ee565b6040516102469190611e65565b60405180910390f35b61026960048036038101906102649190611ebd565b610881565b6040516102769190611f2b565b60405180910390f35b610299600480360381019061029491906121e6565b610933565b6040516102a69190612222565b60405180910390f35b6102b76109eb565b005b6102c1610a73565b6040516102ce9190611f2b565b60405180910390f35b6102df610a9d565b6040516102ec9190611e65565b60405180910390f35b6102fd610b2f565b60405161030a919061229c565b60405180910390f35b61032d600480360381019061032891906122e3565b610b57565b005b610349600480360381019061034491906123c4565b610b6d565b005b61036560048036038101906103609190611ebd565b610bcf565b6040516103729190611e65565b60405180910390f35b610383610da7565b6040516103909190611e65565b60405180910390f35b6103b360048036038101906103ae9190612447565b610e39565b6040516103c09190611db1565b60405180910390f35b6103e360048036038101906103de91906121e6565b610ecd565b005b60007f80ac58cd000000000000000000000000000000000000000000000000000000007bffffffffffffffffffffffffffffffffffffffffffffffffffffffff1916827bffffffffffffffffffffffffffffffffffffffffffffffffffffffff191614806104b057507f5b5e139f000000000000000000000000000000000000000000000000000000007bffffffffffffffffffffffffffffffffffffffffffffffffffffffff1916827bffffffffffffffffffffffffffffffffffffffffffffffffffffffff1916145b806104c057506104bf8261113e565b5b9050919050565b6060600080546104d6906124b6565b80601f0160208091040260200160405190810160405280929190818152602001828054610502906124b6565b801561054f5780601f106105245761010080835404028352916020019161054f565b820191906000526020600020905b81548152906001019060200180831161053257829003601f168201915b5050505050905090565b6000610564826111a8565b6105a3576040517f08c379a000000000000000000000000000000000000000000000000000000000815260040161059a9061255a565b60405180910390fd5b6004600083815260200190815260200160002060009054906101000a900473ffffffffffffffffffffffffffffffffffffffff169050919050565b60006105e982610881565b90508073ffffffffffffffffffffffffffffffffffffffff168373ffffffffffffffffffffffffffffffffffffffff16141561065a576040517f08c379a0000000000000000000000000000000000000000000000000000000008152600401610651906125ec565b60405180910390fd5b8073ffffffffffffffffffffffffffffffffffffffff16610679611214565b73ffffffffffffffffffffffffffffffffffffffff1614806106a857506106a7816106a2611214565b610e39565b5b6106e7576040517f08c379a00000000000000000000000000000000000000000000000000000000081526004016106de9061267e565b60405180910390fd5b6106f1838361121c565b505050565b80600960006007548152602001908152602001600020819055506007547f882d3b5a729a8bb95cf6c0083c99b42ecd9637123d4425bd7b768877fd8af8b08260405161074291906126ad565b60405180910390a2610756336007546112d5565b600160075461076591906126f7565b60078190555050565b61077f610779611214565b826112f3565b6107be576040517f08c379a00000000000000000000000000000000000000000000000000000000081526004016107b5906127bf565b60405180910390fd5b6107c98383836113d1565b505050565b6107e983838360405180602001604052806000815250610b6d565b505050565b606060006040518060400160405280601781526020017f646174613a696d6167652f6a7065673b6261736536342c0000000000000000008152509050600061085484604051602001610840919061281b565b604051602081830303815290604052610fc5565b90508181604051602001610869929190612832565b60405160208183030381529060405292505050919050565b6000806002600084815260200190815260200160002060009054906101000a900473ffffffffffffffffffffffffffffffffffffffff169050600073ffffffffffffffffffffffffffffffffffffffff168173ffffffffffffffffffffffffffffffffffffffff16141561092a576040517f08c379a0000000000000000000000000000000000000000000000000000000008152600401610921906128c8565b60405180910390fd5b80915050919050565b60008073ffffffffffffffffffffffffffffffffffffffff168273ffffffffffffffffffffffffffffffffffffffff1614156109a4576040517f08c379a000000000000000000000000000000000000000000000000000000000815260040161099b9061295a565b60405180910390fd5b600360008373ffffffffffffffffffffffffffffffffffffffff1673ffffffffffffffffffffffffffffffffffffffff168152602001908152602001600020549050919050565b6109f3611214565b73ffffffffffffffffffffffffffffffffffffffff16610a11610a73565b73ffffffffffffffffffffffffffffffffffffffff1614610a67576040517f08c379a0000000000000000000000000000000000000000000000000000000008152600401610a5e906129c6565b60405180910390fd5b610a716000611638565b565b6000600660009054906101000a900473ffffffffffffffffffffffffffffffffffffffff16905090565b606060018054610aac906124b6565b80601f0160208091040260200160405190810160405280929190818152602001828054610ad8906124b6565b8015610b255780601f10610afa57610100808354040283529160200191610b25565b820191906000526020600020905b815481529060010190602001808311610b0857829003601f168201915b5050505050905090565b60007f0000000000000000000000000000000000000000000000000000000000000000905090565b610b69610b62611214565b83836116fe565b5050565b610b7e610b78611214565b836112f3565b610bbd576040517f08c379a0000000000000000000000000000000000000000000000000000000008152600401610bb4906127bf565b60405180910390fd5b610bc98484848461186b565b50505050565b6060610bda826111a8565b610c19576040517f08c379a0000000000000000000000000000000000000000000000000000000008152600401610c1090612a58565b60405180910390fd5b60007f000000000000000000000000000000000000000000000000000000000000000073ffffffffffffffffffffffffffffffffffffffff1663feaf968c6040518163ffffffff1660e01b815260040160a06040518083038186803b158015610c8157600080fd5b505afa158015610c95573d6000803e3d6000fd5b505050506040513d601f19601f82011682018060405250810190610cb99190612ae4565b505050915050600060088054610cce906124b6565b80601f0160208091040260200160405190810160405280929190818152602001828054610cfa906124b6565b8015610d475780601f10610d1c57610100808354040283529160200191610d47565b820191906000526020600020905b815481529060010190602001808311610d2a57829003601f168201915b50505050509050610d566118c7565b610d7e82604051602001610d6a9190612d73565b604051602081830303815290604052610fc5565b604051602001610d8f929190612832565b60405160208183030381529060405292505050919050565b606060088054610db6906124b6565b80601f0160208091040260200160405190810160405280929190818152602001828054610de2906124b6565b8015610e2f5780601f10610e0457610100808354040283529160200191610e2f565b820191906000526020600020905b815481529060010190602001808311610e1257829003601f168201915b5050505050905090565b6000600560008473ffffffffffffffffffffffffffffffffffffffff1673ffffffffffffffffffffffffffffffffffffffff16815260200190815260200160002060008373ffffffffffffffffffffffffffffffffffffffff1673ffffffffffffffffffffffffffffffffffffffff16815260200190815260200160002060009054906101000a900460ff16905092915050565b610ed5611214565b73ffffffffffffffffffffffffffffffffffffffff16610ef3610a73565b73ffffffffffffffffffffffffffffffffffffffff1614610f49576040517f08c379a0000000000000000000000000000000000000000000000000000000008152600401610f40906129c6565b60405180910390fd5b600073ffffffffffffffffffffffffffffffffffffffff168173ffffffffffffffffffffffffffffffffffffffff161415610fb9576040517f08c379a0000000000000000000000000000000000000000000000000000000008152600401610fb090612e33565b60405180910390fd5b610fc281611638565b50565b6060600082511415610fe857604051806020016040528060008152509050611139565b60006040518060600160405280604081526020016133b1604091399050600060036002855161101791906126f7565b6110219190612e82565b600461102d9190612eb3565b9050600060208261103e91906126f7565b67ffffffffffffffff81111561105757611056612072565b5b6040519080825280601f01601f1916602001820160405280156110895781602001600182028036833780820191505090505b509050818152600183018586518101602084015b818310156110f8576003830192508251603f8160121c168501518253600182019150603f81600c1c168501518253600182019150603f8160061c168501518253600182019150603f811685015182536001820191505061109d565b60038951066001811461111257600281146111225761112d565b613d3d60f01b600283035261112d565b603d60f81b60018303525b50505050508093505050505b919050565b60007f01ffc9a7000000000000000000000000000000000000000000000000000000007bffffffffffffffffffffffffffffffffffffffffffffffffffffffff1916827bffffffffffffffffffffffffffffffffffffffffffffffffffffffff1916149050919050565b60008073ffffffffffffffffffffffffffffffffffffffff166002600084815260200190815260200160002060009054906101000a900473ffffffffffffffffffffffffffffffffffffffff1673ffffffffffffffffffffffffffffffffffffffff1614159050919050565b600033905090565b816004600083815260200190815260200160002060006101000a81548173ffffffffffffffffffffffffffffffffffffffff021916908373ffffffffffffffffffffffffffffffffffffffff160217905550808273ffffffffffffffffffffffffffffffffffffffff1661128f83610881565b73ffffffffffffffffffffffffffffffffffffffff167f8c5be1e5ebec7d5bd14f71427d1e84f3dd0314c0f7b2291e5b200ac8c7c3b92560405160405180910390a45050565b6112ef828260405180602001604052806000815250611904565b5050565b60006112fe826111a8565b61133d576040517f08c379a000000000000000000000000000000000000000000000000000000000815260040161133490612f7f565b60405180910390fd5b600061134883610881565b90508073ffffffffffffffffffffffffffffffffffffffff168473ffffffffffffffffffffffffffffffffffffffff16148061138a57506113898185610e39565b5b806113c857508373ffffffffffffffffffffffffffffffffffffffff166113b084610559565b73ffffffffffffffffffffffffffffffffffffffff16145b91505092915050565b8273ffffffffffffffffffffffffffffffffffffffff166113f182610881565b73ffffffffffffffffffffffffffffffffffffffff1614611447576040517f08c379a000000000000000000000000000000000000000000000000000000000815260040161143e90613011565b60405180910390fd5b600073ffffffffffffffffffffffffffffffffffffffff168273ffffffffffffffffffffffffffffffffffffffff1614156114b7576040517f08c379a00000000000000000000000000000000000000000000000000000000081526004016114ae906130a3565b60405180910390fd5b6114c283838361195f565b6114cd60008261121c565b6001600360008573ffffffffffffffffffffffffffffffffffffffff1673ffffffffffffffffffffffffffffffffffffffff168152602001908152602001600020600082825461151d91906130c3565b925050819055506001600360008473ffffffffffffffffffffffffffffffffffffffff1673ffffffffffffffffffffffffffffffffffffffff168152602001908152602001600020600082825461157491906126f7565b92505081905550816002600083815260200190815260200160002060006101000a81548173ffffffffffffffffffffffffffffffffffffffff021916908373ffffffffffffffffffffffffffffffffffffffff160217905550808273ffffffffffffffffffffffffffffffffffffffff168473ffffffffffffffffffffffffffffffffffffffff167fddf252ad1be2c89b69c2b068fc378daa952ba7f163c4a11628f55a4df523b3ef60405160405180910390a4611633838383611964565b505050565b6000600660009054906101000a900473ffffffffffffffffffffffffffffffffffffffff16905081600660006101000a81548173ffffffffffffffffffffffffffffffffffffffff021916908373ffffffffffffffffffffffffffffffffffffffff1602179055508173ffffffffffffffffffffffffffffffffffffffff168173ffffffffffffffffffffffffffffffffffffffff167f8be0079c531659141344cd1fd0a4f28419497f9722a3daafe3b4186f6b6457e060405160405180910390a35050565b8173ffffffffffffffffffffffffffffffffffffffff168373ffffffffffffffffffffffffffffffffffffffff16141561176d576040517f08c379a000000000000000000000000000000000000000000000000000000000815260040161176490613143565b60405180910390fd5b80600560008573ffffffffffffffffffffffffffffffffffffffff1673ffffffffffffffffffffffffffffffffffffffff16815260200190815260200160002060008473ffffffffffffffffffffffffffffffffffffffff1673ffffffffffffffffffffffffffffffffffffffff16815260200190815260200160002060006101000a81548160ff0219169083151502179055508173ffffffffffffffffffffffffffffffffffffffff168373ffffffffffffffffffffffffffffffffffffffff167f17307eab39ab6107e8899845ad3d59bd9653f200f220920489ca2b5937696c318360405161185e9190611db1565b60405180910390a3505050565b6118768484846113d1565b61188284848484611969565b6118c1576040517f08c379a00000000000000000000000000000000000000000000000000000000081526004016118b8906131d5565b60405180910390fd5b50505050565b60606040518060400160405280601d81526020017f646174613a6170706c69636174696f6e2f6a736f6e3b6261736536342c000000815250905090565b61190e8383611b00565b61191b6000848484611969565b61195a576040517f08c379a0000000000000000000000000000000000000000000000000000000008152600401611951906131d5565b60405180910390fd5b505050565b505050565b505050565b600061198a8473ffffffffffffffffffffffffffffffffffffffff16611cda565b15611af3578373ffffffffffffffffffffffffffffffffffffffff1663150b7a026119b3611214565b8786866040518563ffffffff1660e01b81526004016119d5949392919061324a565b602060405180830381600087803b1580156119ef57600080fd5b505af1925050508015611a2057506040513d601f19601f82011682018060405250810190611a1d91906132ab565b60015b611aa3573d8060008114611a50576040519150601f19603f3d011682016040523d82523d6000602084013e611a55565b606091505b50600081511415611a9b576040517f08c379a0000000000000000000000000000000000000000000000000000000008152600401611a92906131d5565b60405180910390fd5b805181602001fd5b63150b7a0260e01b7bffffffffffffffffffffffffffffffffffffffffffffffffffffffff1916817bffffffffffffffffffffffffffffffffffffffffffffffffffffffff191614915050611af8565b600190505b949350505050565b600073ffffffffffffffffffffffffffffffffffffffff168273ffffffffffffffffffffffffffffffffffffffff161415611b70576040517f08c379a0000000000000000000000000000000000000000000000000000000008152600401611b6790613324565b60405180910390fd5b611b79816111a8565b15611bb9576040517f08c379a0000000000000000000000000000000000000000000000000000000008152600401611bb090613390565b60405180910390fd5b611bc56000838361195f565b6001600360008473ffffffffffffffffffffffffffffffffffffffff1673ffffffffffffffffffffffffffffffffffffffff1681526020019081526020016000206000828254611c1591906126f7565b92505081905550816002600083815260200190815260200160002060006101000a81548173ffffffffffffffffffffffffffffffffffffffff021916908373ffffffffffffffffffffffffffffffffffffffff160217905550808273ffffffffffffffffffffffffffffffffffffffff16600073ffffffffffffffffffffffffffffffffffffffff167fddf252ad1be2c89b69c2b068fc378daa952ba7f163c4a11628f55a4df523b3ef60405160405180910390a4611cd660008383611964565b5050565b6000808273ffffffffffffffffffffffffffffffffffffffff163b119050919050565b6000604051905090565b600080fd5b600080fd5b60007fffffffff0000000000000000000000000000000000000000000000000000000082169050919050565b611d4681611d11565b8114611d5157600080fd5b50565b600081359050611d6381611d3d565b92915050565b600060208284031215611d7f57611d7e611d07565b5b6000611d8d84828501611d54565b91505092915050565b60008115159050919050565b611dab81611d96565b82525050565b6000602082019050611dc66000830184611da2565b92915050565b600081519050919050565b600082825260208201905092915050565b60005b83811015611e06578082015181840152602081019050611deb565b83811115611e15576000848401525b50505050565b6000601f19601f8301169050919050565b6000611e3782611dcc565b611e418185611dd7565b9350611e51818560208601611de8565b611e5a81611e1b565b840191505092915050565b60006020820190508181036000830152611e7f8184611e2c565b905092915050565b6000819050919050565b611e9a81611e87565b8114611ea557600080fd5b50565b600081359050611eb781611e91565b92915050565b600060208284031215611ed357611ed2611d07565b5b6000611ee184828501611ea8565b91505092915050565b600073ffffffffffffffffffffffffffffffffffffffff82169050919050565b6000611f1582611eea565b9050919050565b611f2581611f0a565b82525050565b6000602082019050611f406000830184611f1c565b92915050565b611f4f81611f0a565b8114611f5a57600080fd5b50565b600081359050611f6c81611f46565b92915050565b60008060408385031215611f8957611f88611d07565b5b6000611f9785828601611f5d565b9250506020611fa885828601611ea8565b9150509250929050565b6000819050919050565b611fc581611fb2565b8114611fd057600080fd5b50565b600081359050611fe281611fbc565b92915050565b600060208284031215611ffe57611ffd611d07565b5b600061200c84828501611fd3565b91505092915050565b60008060006060848603121561202e5761202d611d07565b5b600061203c86828701611f5d565b935050602061204d86828701611f5d565b925050604061205e86828701611ea8565b9150509250925092565b600080fd5b600080fd5b7f4e487b7100000000000000000000000000000000000000000000000000000000600052604160045260246000fd5b6120aa82611e1b565b810181811067ffffffffffffffff821117156120c9576120c8612072565b5b80604052505050565b60006120dc611cfd565b90506120e882826120a1565b919050565b600067ffffffffffffffff82111561210857612107612072565b5b61211182611e1b565b9050602081019050919050565b82818337600083830152505050565b600061214061213b846120ed565b6120d2565b90508281526020810184848401111561215c5761215b61206d565b5b61216784828561211e565b509392505050565b600082601f83011261218457612183612068565b5b813561219484826020860161212d565b91505092915050565b6000602082840312156121b3576121b2611d07565b5b600082013567ffffffffffffffff8111156121d1576121d0611d0c565b5b6121dd8482850161216f565b91505092915050565b6000602082840312156121fc576121fb611d07565b5b600061220a84828501611f5d565b91505092915050565b61221c81611e87565b82525050565b60006020820190506122376000830184612213565b92915050565b6000819050919050565b600061226261225d61225884611eea565b61223d565b611eea565b9050919050565b600061227482612247565b9050919050565b600061228682612269565b9050919050565b6122968161227b565b82525050565b60006020820190506122b1600083018461228d565b92915050565b6122c081611d96565b81146122cb57600080fd5b50565b6000813590506122dd816122b7565b92915050565b600080604083850312156122fa576122f9611d07565b5b600061230885828601611f5d565b9250506020612319858286016122ce565b9150509250929050565b600067ffffffffffffffff82111561233e5761233d612072565b5b61234782611e1b565b9050602081019050919050565b600061236761236284612323565b6120d2565b9050828152602081018484840111156123835761238261206d565b5b61238e84828561211e565b509392505050565b600082601f8301126123ab576123aa612068565b5b81356123bb848260208601612354565b91505092915050565b600080600080608085870312156123de576123dd611d07565b5b60006123ec87828801611f5d565b94505060206123fd87828801611f5d565b935050604061240e87828801611ea8565b925050606085013567ffffffffffffffff81111561242f5761242e611d0c565b5b61243b87828801612396565b91505092959194509250565b6000806040838503121561245e5761245d611d07565b5b600061246c85828601611f5d565b925050602061247d85828601611f5d565b9150509250929050565b7f4e487b7100000000000000000000000000000000000000000000000000000000600052602260045260246000fd5b600060028204905060018216806124ce57607f821691505b602082108114156124e2576124e1612487565b5b50919050565b7f4552433732313a20617070726f76656420717565727920666f72206e6f6e657860008201527f697374656e7420746f6b656e0000000000000000000000000000000000000000602082015250565b6000612544602c83611dd7565b915061254f826124e8565b604082019050919050565b6000602082019050818103600083015261257381612537565b9050919050565b7f4552433732313a20617070726f76616c20746f2063757272656e74206f776e6560008201527f7200000000000000000000000000000000000000000000000000000000000000602082015250565b60006125d6602183611dd7565b91506125e18261257a565b604082019050919050565b60006020820190508181036000830152612605816125c9565b9050919050565b7f4552433732313a20617070726f76652063616c6c6572206973206e6f74206f7760008201527f6e6572206e6f7220617070726f76656420666f7220616c6c0000000000000000602082015250565b6000612668603883611dd7565b91506126738261260c565b604082019050919050565b600060208201905081810360008301526126978161265b565b9050919050565b6126a781611fb2565b82525050565b60006020820190506126c2600083018461269e565b92915050565b7f4e487b7100000000000000000000000000000000000000000000000000000000600052601160045260246000fd5b600061270282611e87565b915061270d83611e87565b9250827fffffffffffffffffffffffffffffffffffffffffffffffffffffffffffffffff03821115612742576127416126c8565b5b828201905092915050565b7f4552433732313a207472616e736665722063616c6c6572206973206e6f74206f60008201527f776e6572206e6f7220617070726f766564000000000000000000000000000000602082015250565b60006127a9603183611dd7565b91506127b48261274d565b604082019050919050565b600060208201905081810360008301526127d88161279c565b9050919050565b600081905092915050565b60006127f582611dcc565b6127ff81856127df565b935061280f818560208601611de8565b80840191505092915050565b600061282782846127ea565b915081905092915050565b600061283e82856127ea565b915061284a82846127ea565b91508190509392505050565b7f4552433732313a206f776e657220717565727920666f72206e6f6e657869737460008201527f656e7420746f6b656e0000000000000000000000000000000000000000000000602082015250565b60006128b2602983611dd7565b91506128bd82612856565b604082019050919050565b600060208201905081810360008301526128e1816128a5565b9050919050565b7f4552433732313a2062616c616e636520717565727920666f7220746865207a6560008201527f726f206164647265737300000000000000000000000000000000000000000000602082015250565b6000612944602a83611dd7565b915061294f826128e8565b604082019050919050565b6000602082019050818103600083015261297381612937565b9050919050565b7f4f776e61626c653a2063616c6c6572206973206e6f7420746865206f776e6572600082015250565b60006129b0602083611dd7565b91506129bb8261297a565b602082019050919050565b600060208201905081810360008301526129df816129a3565b9050919050565b7f4552433732314d657461646174613a2055524920717565727920666f72206e6f60008201527f6e6578697374656e7420746f6b656e0000000000000000000000000000000000602082015250565b6000612a42602f83611dd7565b9150612a4d826129e6565b604082019050919050565b60006020820190508181036000830152612a7181612a35565b9050919050565b600069ffffffffffffffffffff82169050919050565b612a9781612a78565b8114612aa257600080fd5b50565b600081519050612ab481612a8e565b92915050565b600081519050612ac981611fbc565b92915050565b600081519050612ade81611e91565b92915050565b600080600080600060a08688031215612b0057612aff611d07565b5b6000612b0e88828901612aa5565b9550506020612b1f88828901612aba565b9450506040612b3088828901612acf565b9350506060612b4188828901612acf565b9250506080612b5288828901612aa5565b9150509295509295909350565b7f7b226e616d65223a220000000000000000000000000000000000000000000000600082015250565b6000612b956009836127df565b9150612ba082612b5f565b600982019050919050565b7f6c7563726174697665206e667400000000000000000000000000000000000000600082015250565b6000612be1600d836127df565b9150612bec82612bab565b600d82019050919050565b7f222c20226465736372697074696f6e223a22416e204e4654207468617420697360008201527f206175746f6d61746963616c6c792067656e6572617465642066726f6d20776560208201527f627369746520696d61676573222c200000000000000000000000000000000000604082015250565b6000612c79604f836127df565b9150612c8482612bf7565b604f82019050919050565b7f2261747472696275746573223a205b7b2274726169745f74797065223a20226360008201527f6f6f6c6e657373222c202276616c7565223a203130307d5d2c2022696d61676560208201527f223a220000000000000000000000000000000000000000000000000000000000604082015250565b6000612d116043836127df565b9150612d1c82612c8f565b604382019050919050565b7f227d000000000000000000000000000000000000000000000000000000000000600082015250565b6000612d5d6002836127df565b9150612d6882612d27565b600282019050919050565b6000612d7e82612b88565b9150612d8982612bd4565b9150612d9482612c6c565b9150612d9f82612d04565b9150612dab82846127ea565b9150612db682612d50565b915081905092915050565b7f4f776e61626c653a206e6577206f776e657220697320746865207a65726f206160008201527f6464726573730000000000000000000000000000000000000000000000000000602082015250565b6000612e1d602683611dd7565b9150612e2882612dc1565b604082019050919050565b60006020820190508181036000830152612e4c81612e10565b9050919050565b7f4e487b7100000000000000000000000000000000000000000000000000000000600052601260045260246000fd5b6000612e8d82611e87565b9150612e9883611e87565b925082612ea857612ea7612e53565b5b828204905092915050565b6000612ebe82611e87565b9150612ec983611e87565b9250817fffffffffffffffffffffffffffffffffffffffffffffffffffffffffffffffff0483118215151615612f0257612f016126c8565b5b828202905092915050565b7f4552433732313a206f70657261746f7220717565727920666f72206e6f6e657860008201527f697374656e7420746f6b656e0000000000000000000000000000000000000000602082015250565b6000612f69602c83611dd7565b9150612f7482612f0d565b604082019050919050565b60006020820190508181036000830152612f9881612f5c565b9050919050565b7f4552433732313a207472616e736665722066726f6d20696e636f72726563742060008201527f6f776e6572000000000000000000000000000000000000000000000000000000602082015250565b6000612ffb602583611dd7565b915061300682612f9f565b604082019050919050565b6000602082019050818103600083015261302a81612fee565b9050919050565b7f4552433732313a207472616e7366657220746f20746865207a65726f2061646460008201527f7265737300000000000000000000000000000000000000000000000000000000602082015250565b600061308d602483611dd7565b915061309882613031565b604082019050919050565b600060208201905081810360008301526130bc81613080565b9050919050565b60006130ce82611e87565b91506130d983611e87565b9250828210156130ec576130eb6126c8565b5b828203905092915050565b7f4552433732313a20617070726f766520746f2063616c6c657200000000000000600082015250565b600061312d601983611dd7565b9150613138826130f7565b602082019050919050565b6000602082019050818103600083015261315c81613120565b9050919050565b7f4552433732313a207472616e7366657220746f206e6f6e20455243373231526560008201527f63656976657220696d706c656d656e7465720000000000000000000000000000602082015250565b60006131bf603283611dd7565b91506131ca82613163565b604082019050919050565b600060208201905081810360008301526131ee816131b2565b9050919050565b600081519050919050565b600082825260208201905092915050565b600061321c826131f5565b6132268185613200565b9350613236818560208601611de8565b61323f81611e1b565b840191505092915050565b600060808201905061325f6000830187611f1c565b61326c6020830186611f1c565b6132796040830185612213565b818103606083015261328b8184613211565b905095945050505050565b6000815190506132a581611d3d565b92915050565b6000602082840312156132c1576132c0611d07565b5b60006132cf84828501613296565b91505092915050565b7f4552433732313a206d696e7420746f20746865207a65726f2061646472657373600082015250565b600061330e602083611dd7565b9150613319826132d8565b602082019050919050565b6000602082019050818103600083015261333d81613301565b9050919050565b7f4552433732313a20746f6b656e20616c7265616479206d696e74656400000000600082015250565b600061337a601c83611dd7565b915061338582613344565b602082019050919050565b600060208201905081810360008301526133a98161336d565b905091905056fe4142434445464748494a4b4c4d4e4f505152535455565758595a6162636465666768696a6b6c6d6e6f707172737475767778797a303132333435363738392b2fa2646970667358221220e156d2b403bd191f0b7e3aecc76526444404ae39ce454b12879d1f271e17ef6e64736f6c634300080800334142434445464748494a4b4c4d4e4f505152535455565758595a6162636465666768696a6b6c6d6e6f707172737475767778797a303132333435363738392b2f",
  "linkReferences": {},
  "deployedLinkReferences": {}
}