{
  "_format": "hh-sol-artifact-1",
  "contractName": "DynamicSvgNft",
  "sourceName": "Contracts/svgGenerator.sol",
  "abi": [
    {
      "inputs": [
        {
          "internalType": "address",
          "name": "priceFeedAddress",
          "type": "address"
        },
        {
          "internalType": "string",
          "name": "first_Img",
          "type": "string"
        }
      ],
      "stateMutability": "nonpayable",
      "type": "constructor"
    },
    {
      "anonymous": false,
      "inputs": [
        {
          "indexed": true,
          "internalType": "address",
          "name": "owner",
          "type": "address"
        },
        {
          "indexed": true,
          "internalType": "address",
          "name": "approved",
          "type": "address"
        },
        {
          "indexed": true,
          "internalType": "uint256",
          "name": "tokenId",
          "type": "uint256"
        }
      ],
      "name": "Approval",
      "type": "event"
    },
    {
      "anonymous": false,
      "inputs": [
        {
          "indexed": true,
          "internalType": "address",
          "name": "owner",
          "type": "address"
        },
        {
          "indexed": true,
          "internalType": "address",
          "name": "operator",
          "type": "address"
        },
        {
          "indexed": false,
          "internalType": "bool",
          "name": "approved",
          "type": "bool"
        }
      ],
      "name": "ApprovalForAll",
      "type": "event"
    },
    {
      "anonymous": false,
      "inputs": [
        {
          "indexed": true,
          "internalType": "uint256",
          "name": "tokenId",
          "type": "uint256"
        },
        {
          "indexed": false,
          "internalType": "int256",
          "name": "highValue",
          "type": "int256"
        }
      ],
      "name": "CreatedNFT",
      "type": "event"
    },
    {
      "anonymous": false,
      "inputs": [
        {
          "indexed": true,
          "internalType": "address",
          "name": "previousOwner",
          "type": "address"
        },
        {
          "indexed": true,
          "internalType": "address",
          "name": "newOwner",
          "type": "address"
        }
      ],
      "name": "OwnershipTransferred",
      "type": "event"
    },
    {
      "anonymous": false,
      "inputs": [
        {
          "indexed": true,
          "internalType": "address",
          "name": "from",
          "type": "address"
        },
        {
          "indexed": true,
          "internalType": "address",
          "name": "to",
          "type": "address"
        },
        {
          "indexed": true,
          "internalType": "uint256",
          "name": "tokenId",
          "type": "uint256"
        }
      ],
      "name": "Transfer",
      "type": "event"
    },
    {
      "inputs": [
        {
          "internalType": "address",
          "name": "to",
          "type": "address"
        },
        {
          "internalType": "uint256",
          "name": "tokenId",
          "type": "uint256"
        }
      ],
      "name": "approve",
      "outputs": [],
      "stateMutability": "nonpayable",
      "type": "function"
    },
    {
      "inputs": [
        {
          "internalType": "address",
          "name": "owner",
          "type": "address"
        }
      ],
      "name": "balanceOf",
      "outputs": [
        {
          "internalType": "uint256",
          "name": "",
          "type": "uint256"
        }
      ],
      "stateMutability": "view",
      "type": "function"
    },
    {
      "inputs": [
        {
          "internalType": "uint256",
          "name": "tokenId",
          "type": "uint256"
        }
      ],
      "name": "getApproved",
      "outputs": [
        {
          "internalType": "address",
          "name": "",
          "type": "address"
        }
      ],
      "stateMutability": "view",
      "type": "function"
    },
    {
      "inputs": [],
      "name": "getPriceFeed",
      "outputs": [
        {
          "internalType": "contract AggregatorV3Interface",
          "name": "",
          "type": "address"
        }
      ],
      "stateMutability": "view",
      "type": "function"
    },
    {
      "inputs": [],
      "name": "getTokenCounter",
      "outputs": [
        {
          "internalType": "uint256",
          "name": "",
          "type": "uint256"
        }
      ],
      "stateMutability": "view",
      "type": "function"
    },
    {
      "inputs": [],
      "name": "get_Img",
      "outputs": [
        {
          "internalType": "string",
          "name": "",
          "type": "string"
        }
      ],
      "stateMutability": "view",
      "type": "function"
    },
    {
      "inputs": [
        {
          "internalType": "address",
          "name": "owner",
          "type": "address"
        },
        {
          "internalType": "address",
          "name": "operator",
          "type": "address"
        }
      ],
      "name": "isApprovedForAll",
      "outputs": [
        {
          "internalType": "bool",
          "name": "",
          "type": "bool"
        }
      ],
      "stateMutability": "view",
      "type": "function"
    },
    {
      "inputs": [
        {
          "internalType": "int256",
          "name": "highValue",
          "type": "int256"
        }
      ],
      "name": "mintNft",
      "outputs": [],
      "stateMutability": "nonpayable",
      "type": "function"
    },
    {
      "inputs": [],
      "name": "name",
      "outputs": [
        {
          "internalType": "string",
          "name": "",
          "type": "string"
        }
      ],
      "stateMutability": "view",
      "type": "function"
    },
    {
      "inputs": [],
      "name": "owner",
      "outputs": [
        {
          "internalType": "address",
          "name": "",
          "type": "address"
        }
      ],
      "stateMutability": "view",
      "type": "function"
    },
    {
      "inputs": [
        {
          "internalType": "uint256",
          "name": "tokenId",
          "type": "uint256"
        }
      ],
      "name": "ownerOf",
      "outputs": [
        {
          "internalType": "address",
          "name": "",
          "type": "address"
        }
      ],
      "stateMutability": "view",
      "type": "function"
    },
    {
      "inputs": [],
      "name": "renounceOwnership",
      "outputs": [],
      "stateMutability": "nonpayable",
      "type": "function"
    },
    {
      "inputs": [
        {
          "internalType": "address",
          "name": "from",
          "type": "address"
        },
        {
          "internalType": "address",
          "name": "to",
          "type": "address"
        },
        {
          "internalType": "uint256",
          "name": "tokenId",
          "type": "uint256"
        }
      ],
      "name": "safeTransferFrom",
      "outputs": [],
      "stateMutability": "nonpayable",
      "type": "function"
    },
    {
      "inputs": [
        {
          "internalType": "address",
          "name": "from",
          "type": "address"
        },
        {
          "internalType": "address",
          "name": "to",
          "type": "address"
        },
        {
          "internalType": "uint256",
          "name": "tokenId",
          "type": "uint256"
        },
        {
          "internalType": "bytes",
          "name": "_data",
          "type": "bytes"
        }
      ],
      "name": "safeTransferFrom",
      "outputs": [],
      "stateMutability": "nonpayable",
      "type": "function"
    },
    {
      "inputs": [
        {
          "internalType": "address",
          "name": "operator",
          "type": "address"
        },
        {
          "internalType": "bool",
          "name": "approved",
          "type": "bool"
        }
      ],
      "name": "setApprovalForAll",
      "outputs": [],
      "stateMutability": "nonpayable",
      "type": "function"
    },
    {
      "inputs": [
        {
          "internalType": "bytes4",
          "name": "interfaceId",
          "type": "bytes4"
        }
      ],
      "name": "supportsInterface",
      "outputs": [
        {
          "internalType": "bool",
          "name": "",
          "type": "bool"
        }
      ],
      "stateMutability": "view",
      "type": "function"
    },
    {
      "inputs": [
        {
          "internalType": "string",
          "name": "svg",
          "type": "string"
        }
      ],
      "name": "svgToImageURI",
      "outputs": [
        {
          "internalType": "string",
          "name": "",
          "type": "string"
        }
      ],
      "stateMutability": "pure",
      "type": "function"
    },
    {
      "inputs": [],
      "name": "symbol",
      "outputs": [
        {
          "internalType": "string",
          "name": "",
          "type": "string"
        }
      ],
      "stateMutability": "view",
      "type": "function"
    },
    {
      "inputs": [
        {
          "internalType": "uint256",
          "name": "tokenId",
          "type": "uint256"
        }
      ],
      "name": "tokenURI",
      "outputs": [
        {
          "internalType": "string",
          "name": "",
          "type": "string"
        }
      ],
      "stateMutability": "view",
      "type": "function"
    },
    {
      "inputs": [
        {
          "internalType": "address",
          "name": "from",
          "type": "address"
        },
        {
          "internalType": "address",
          "name": "to",
          "type": "address"
        },
        {
          "internalType": "uint256",
          "name": "tokenId",
          "type": "uint256"
        }
      ],
      "name": "transferFrom",
      "outputs": [],
      "stateMutability": "nonpayable",
      "type": "function"
    },
    {
      "inputs": [
        {
          "internalType": "address",
          "name": "newOwner",
          "type": "address"
        }
      ],
      "name": "transferOwnership",
      "outputs": [],
      "stateMutability": "nonpayable",
      "type": "function"
    }
  ],
  "bytecode": "0x60a06040523480156200001157600080fd5b5060405162003e8f38038062003e8f833981810160405281019062000037919062000719565b6040518060400160405280600d81526020017f4c7563726174697665204e4654000000000000000000000000000000000000008152506040518060400160405280600381526020017f4c634e00000000000000000000000000000000000000000000000000000000008152508160009080519060200190620000bb92919062000467565b508060019080519060200190620000d492919062000467565b505050620000f7620000eb6200016760201b60201c565b6200016f60201b60201c565b60006007819055508173ffffffffffffffffffffffffffffffffffffffff1660808173ffffffffffffffffffffffffffffffffffffffff1660601b8152505062000147816200023560201b60201c565b600890805190602001906200015e92919062000467565b505050620009d0565b600033905090565b6000600660009054906101000a900473ffffffffffffffffffffffffffffffffffffffff16905081600660006101000a81548173ffffffffffffffffffffffffffffffffffffffff021916908373ffffffffffffffffffffffffffffffffffffffff1602179055508173ffffffffffffffffffffffffffffffffffffffff168173ffffffffffffffffffffffffffffffffffffffff167f8be0079c531659141344cd1fd0a4f28419497f9722a3daafe3b4186f6b6457e060405160405180910390a35050565b606060006040518060400160405280601681526020017f646174613a696d6167652f6a70673b6261736536342c0000000000000000000081525090506000620002aa846040516020016200028a9190620007cc565b604051602081830303815290604052620002d960201b62000ff81760201c565b90508181604051602001620002c1929190620007e5565b60405160208183030381529060405292505050919050565b6060600082511415620002fe5760405180602001604052806000815250905062000462565b600060405180606001604052806040815260200162003e4f604091399050600060036002855162000330919062000846565b6200033c9190620008d2565b60046200034a91906200090a565b905060006020826200035d919062000846565b67ffffffffffffffff811115620003795762000378620005ab565b5b6040519080825280601f01601f191660200182016040528015620003ac5781602001600182028036833780820191505090505b509050818152600183018586518101602084015b818310156200041d576003830192508251603f8160121c168501518253600182019150603f81600c1c168501518253600182019150603f8160061c168501518253600182019150603f8116850151825360018201915050620003c0565b6003895106600181146200043a57600281146200044b5762000456565b613d3d60f01b600283035262000456565b603d60f81b60018303525b50505050508093505050505b919050565b82805462000475906200099a565b90600052602060002090601f016020900481019282620004995760008555620004e5565b82601f10620004b457805160ff1916838001178555620004e5565b82800160010185558215620004e5579182015b82811115620004e4578251825591602001919060010190620004c7565b5b509050620004f49190620004f8565b5090565b5b8082111562000513576000816000905550600101620004f9565b5090565b6000604051905090565b600080fd5b600080fd5b600073ffffffffffffffffffffffffffffffffffffffff82169050919050565b600062000558826200052b565b9050919050565b6200056a816200054b565b81146200057657600080fd5b50565b6000815190506200058a816200055f565b92915050565b600080fd5b600080fd5b6000601f19601f8301169050919050565b7f4e487b7100000000000000000000000000000000000000000000000000000000600052604160045260246000fd5b620005e5826200059a565b810181811067ffffffffffffffff82111715620006075762000606620005ab565b5b80604052505050565b60006200061c62000517565b90506200062a8282620005da565b919050565b600067ffffffffffffffff8211156200064d576200064c620005ab565b5b62000658826200059a565b9050602081019050919050565b60005b838110156200068557808201518184015260208101905062000668565b8381111562000695576000848401525b50505050565b6000620006b2620006ac846200062f565b62000610565b905082815260208101848484011115620006d157620006d062000595565b5b620006de84828562000665565b509392505050565b600082601f830112620006fe57620006fd62000590565b5b8151620007108482602086016200069b565b91505092915050565b6000806040838503121562000733576200073262000521565b5b6000620007438582860162000579565b925050602083015167ffffffffffffffff81111562000767576200076662000526565b5b6200077585828601620006e6565b9150509250929050565b600081519050919050565b600081905092915050565b6000620007a2826200077f565b620007ae81856200078a565b9350620007c081856020860162000665565b80840191505092915050565b6000620007da828462000795565b915081905092915050565b6000620007f3828562000795565b915062000801828462000795565b91508190509392505050565b6000819050919050565b7f4e487b7100000000000000000000000000000000000000000000000000000000600052601160045260246000fd5b600062000853826200080d565b915062000860836200080d565b9250827fffffffffffffffffffffffffffffffffffffffffffffffffffffffffffffffff0382111562000898576200089762000817565b5b828201905092915050565b7f4e487b7100000000000000000000000000000000000000000000000000000000600052601260045260246000fd5b6000620008df826200080d565b9150620008ec836200080d565b925082620008ff57620008fe620008a3565b5b828204905092915050565b600062000917826200080d565b915062000924836200080d565b9250817fffffffffffffffffffffffffffffffffffffffffffffffffffffffffffffffff048311821515161562000960576200095f62000817565b5b828202905092915050565b7f4e487b7100000000000000000000000000000000000000000000000000000000600052602260045260246000fd5b60006002820490506001821680620009b357607f821691505b60208210811415620009ca57620009c96200096b565b5b50919050565b60805160601c613459620009f660003960008181610b660152610c5001526134596000f3fe608060405234801561001057600080fd5b50600436106101375760003560e01c806370a08231116100b8578063a22cb4651161007c578063a22cb4651461033c578063b88d4fde14610358578063c87b56dd14610374578063e226cb29146103a4578063e985e9c5146103c2578063f2fde38b146103f257610137565b806370a08231146102a8578063715018a6146102d85780638da5cb5b146102e257806395d89b41146103005780639e87a5cd1461031e57610137565b806323b872dd116100ff57806323b872dd146101f257806330d871c61461020e57806342842e0e1461023e5780636352211e1461025a5780636e02007d1461028a57610137565b806301ffc9a71461013c57806306fdde031461016c578063081812fc1461018a578063095ea7b3146101ba5780631e930812146101d6575b600080fd5b61015660048036038101906101519190611d9c565b61040e565b6040516101639190611de4565b60405180910390f35b6101746104f0565b6040516101819190611e98565b60405180910390f35b6101a4600480360381019061019f9190611ef0565b610582565b6040516101b19190611f5e565b60405180910390f35b6101d460048036038101906101cf9190611fa5565b610607565b005b6101f060048036038101906101eb919061201b565b61071f565b005b61020c60048036038101906102079190612048565b610797565b005b610228600480360381019061022391906121d0565b6107f7565b6040516102359190611e98565b60405180910390f35b61025860048036038101906102539190612048565b61088a565b005b610274600480360381019061026f9190611ef0565b6108aa565b6040516102819190611f5e565b60405180910390f35b61029261095c565b60405161029f9190612228565b60405180910390f35b6102c260048036038101906102bd9190612243565b610966565b6040516102cf9190612228565b60405180910390f35b6102e0610a1e565b005b6102ea610aa6565b6040516102f79190611f5e565b60405180910390f35b610308610ad0565b6040516103159190611e98565b60405180910390f35b610326610b62565b60405161033391906122cf565b60405180910390f35b61035660048036038101906103519190612316565b610b8a565b005b610372600480360381019061036d91906123f7565b610ba0565b005b61038e60048036038101906103899190611ef0565b610c02565b60405161039b9190611e98565b60405180910390f35b6103ac610dda565b6040516103b99190611e98565b60405180910390f35b6103dc60048036038101906103d7919061247a565b610e6c565b6040516103e99190611de4565b60405180910390f35b61040c60048036038101906104079190612243565b610f00565b005b60007f80ac58cd000000000000000000000000000000000000000000000000000000007bffffffffffffffffffffffffffffffffffffffffffffffffffffffff1916827bffffffffffffffffffffffffffffffffffffffffffffffffffffffff191614806104d957507f5b5e139f000000000000000000000000000000000000000000000000000000007bffffffffffffffffffffffffffffffffffffffffffffffffffffffff1916827bffffffffffffffffffffffffffffffffffffffffffffffffffffffff1916145b806104e957506104e882611171565b5b9050919050565b6060600080546104ff906124e9565b80601f016020809104026020016040519081016040528092919081815260200182805461052b906124e9565b80156105785780601f1061054d57610100808354040283529160200191610578565b820191906000526020600020905b81548152906001019060200180831161055b57829003601f168201915b5050505050905090565b600061058d826111db565b6105cc576040517f08c379a00000000000000000000000000000000000000000000000000000000081526004016105c39061258d565b60405180910390fd5b6004600083815260200190815260200160002060009054906101000a900473ffffffffffffffffffffffffffffffffffffffff169050919050565b6000610612826108aa565b90508073ffffffffffffffffffffffffffffffffffffffff168373ffffffffffffffffffffffffffffffffffffffff161415610683576040517f08c379a000000000000000000000000000000000000000000000000000000000815260040161067a9061261f565b60405180910390fd5b8073ffffffffffffffffffffffffffffffffffffffff166106a2611247565b73ffffffffffffffffffffffffffffffffffffffff1614806106d157506106d0816106cb611247565b610e6c565b5b610710576040517f08c379a0000000000000000000000000000000000000000000000000000000008152600401610707906126b1565b60405180910390fd5b61071a838361124f565b505050565b80600960006007548152602001908152602001600020819055506007547f882d3b5a729a8bb95cf6c0083c99b42ecd9637123d4425bd7b768877fd8af8b08260405161076b91906126e0565b60405180910390a261077f33600754611308565b600160075461078e919061272a565b60078190555050565b6107a86107a2611247565b82611326565b6107e7576040517f08c379a00000000000000000000000000000000000000000000000000000000081526004016107de906127f2565b60405180910390fd5b6107f2838383611404565b505050565b606060006040518060400160405280601681526020017f646174613a696d6167652f6a70673b6261736536342c000000000000000000008152509050600061085d84604051602001610849919061284e565b604051602081830303815290604052610ff8565b90508181604051602001610872929190612865565b60405160208183030381529060405292505050919050565b6108a583838360405180602001604052806000815250610ba0565b505050565b6000806002600084815260200190815260200160002060009054906101000a900473ffffffffffffffffffffffffffffffffffffffff169050600073ffffffffffffffffffffffffffffffffffffffff168173ffffffffffffffffffffffffffffffffffffffff161415610953576040517f08c379a000000000000000000000000000000000000000000000000000000000815260040161094a906128fb565b60405180910390fd5b80915050919050565b6000600754905090565b60008073ffffffffffffffffffffffffffffffffffffffff168273ffffffffffffffffffffffffffffffffffffffff1614156109d7576040517f08c379a00000000000000000000000000000000000000000000000000000000081526004016109ce9061298d565b60405180910390fd5b600360008373ffffffffffffffffffffffffffffffffffffffff1673ffffffffffffffffffffffffffffffffffffffff168152602001908152602001600020549050919050565b610a26611247565b73ffffffffffffffffffffffffffffffffffffffff16610a44610aa6565b73ffffffffffffffffffffffffffffffffffffffff1614610a9a576040517f08c379a0000000000000000000000000000000000000000000000000000000008152600401610a91906129f9565b60405180910390fd5b610aa4600061166b565b565b6000600660009054906101000a900473ffffffffffffffffffffffffffffffffffffffff16905090565b606060018054610adf906124e9565b80601f0160208091040260200160405190810160405280929190818152602001828054610b0b906124e9565b8015610b585780601f10610b2d57610100808354040283529160200191610b58565b820191906000526020600020905b815481529060010190602001808311610b3b57829003601f168201915b5050505050905090565b60007f0000000000000000000000000000000000000000000000000000000000000000905090565b610b9c610b95611247565b8383611731565b5050565b610bb1610bab611247565b83611326565b610bf0576040517f08c379a0000000000000000000000000000000000000000000000000000000008152600401610be7906127f2565b60405180910390fd5b610bfc8484848461189e565b50505050565b6060610c0d826111db565b610c4c576040517f08c379a0000000000000000000000000000000000000000000000000000000008152600401610c4390612a8b565b60405180910390fd5b60007f000000000000000000000000000000000000000000000000000000000000000073ffffffffffffffffffffffffffffffffffffffff1663feaf968c6040518163ffffffff1660e01b815260040160a06040518083038186803b158015610cb457600080fd5b505afa158015610cc8573d6000803e3d6000fd5b505050506040513d601f19601f82011682018060405250810190610cec9190612b17565b505050915050600060088054610d01906124e9565b80601f0160208091040260200160405190810160405280929190818152602001828054610d2d906124e9565b8015610d7a5780601f10610d4f57610100808354040283529160200191610d7a565b820191906000526020600020905b815481529060010190602001808311610d5d57829003601f168201915b50505050509050610d896118fa565b610db182604051602001610d9d9190612da6565b604051602081830303815290604052610ff8565b604051602001610dc2929190612865565b60405160208183030381529060405292505050919050565b606060088054610de9906124e9565b80601f0160208091040260200160405190810160405280929190818152602001828054610e15906124e9565b8015610e625780601f10610e3757610100808354040283529160200191610e62565b820191906000526020600020905b815481529060010190602001808311610e4557829003601f168201915b5050505050905090565b6000600560008473ffffffffffffffffffffffffffffffffffffffff1673ffffffffffffffffffffffffffffffffffffffff16815260200190815260200160002060008373ffffffffffffffffffffffffffffffffffffffff1673ffffffffffffffffffffffffffffffffffffffff16815260200190815260200160002060009054906101000a900460ff16905092915050565b610f08611247565b73ffffffffffffffffffffffffffffffffffffffff16610f26610aa6565b73ffffffffffffffffffffffffffffffffffffffff1614610f7c576040517f08c379a0000000000000000000000000000000000000000000000000000000008152600401610f73906129f9565b60405180910390fd5b600073ffffffffffffffffffffffffffffffffffffffff168173ffffffffffffffffffffffffffffffffffffffff161415610fec576040517f08c379a0000000000000000000000000000000000000000000000000000000008152600401610fe390612e66565b60405180910390fd5b610ff58161166b565b50565b606060008251141561101b5760405180602001604052806000815250905061116c565b60006040518060600160405280604081526020016133e4604091399050600060036002855161104a919061272a565b6110549190612eb5565b60046110609190612ee6565b90506000602082611071919061272a565b67ffffffffffffffff81111561108a576110896120a5565b5b6040519080825280601f01601f1916602001820160405280156110bc5781602001600182028036833780820191505090505b509050818152600183018586518101602084015b8183101561112b576003830192508251603f8160121c168501518253600182019150603f81600c1c168501518253600182019150603f8160061c168501518253600182019150603f81168501518253600182019150506110d0565b600389510660018114611145576002811461115557611160565b613d3d60f01b6002830352611160565b603d60f81b60018303525b50505050508093505050505b919050565b60007f01ffc9a7000000000000000000000000000000000000000000000000000000007bffffffffffffffffffffffffffffffffffffffffffffffffffffffff1916827bffffffffffffffffffffffffffffffffffffffffffffffffffffffff1916149050919050565b60008073ffffffffffffffffffffffffffffffffffffffff166002600084815260200190815260200160002060009054906101000a900473ffffffffffffffffffffffffffffffffffffffff1673ffffffffffffffffffffffffffffffffffffffff1614159050919050565b600033905090565b816004600083815260200190815260200160002060006101000a81548173ffffffffffffffffffffffffffffffffffffffff021916908373ffffffffffffffffffffffffffffffffffffffff160217905550808273ffffffffffffffffffffffffffffffffffffffff166112c2836108aa565b73ffffffffffffffffffffffffffffffffffffffff167f8c5be1e5ebec7d5bd14f71427d1e84f3dd0314c0f7b2291e5b200ac8c7c3b92560405160405180910390a45050565b611322828260405180602001604052806000815250611937565b5050565b6000611331826111db565b611370576040517f08c379a000000000000000000000000000000000000000000000000000000000815260040161136790612fb2565b60405180910390fd5b600061137b836108aa565b90508073ffffffffffffffffffffffffffffffffffffffff168473ffffffffffffffffffffffffffffffffffffffff1614806113bd57506113bc8185610e6c565b5b806113fb57508373ffffffffffffffffffffffffffffffffffffffff166113e384610582565b73ffffffffffffffffffffffffffffffffffffffff16145b91505092915050565b8273ffffffffffffffffffffffffffffffffffffffff16611424826108aa565b73ffffffffffffffffffffffffffffffffffffffff161461147a576040517f08c379a000000000000000000000000000000000000000000000000000000000815260040161147190613044565b60405180910390fd5b600073ffffffffffffffffffffffffffffffffffffffff168273ffffffffffffffffffffffffffffffffffffffff1614156114ea576040517f08c379a00000000000000000000000000000000000000000000000000000000081526004016114e1906130d6565b60405180910390fd5b6114f5838383611992565b61150060008261124f565b6001600360008573ffffffffffffffffffffffffffffffffffffffff1673ffffffffffffffffffffffffffffffffffffffff168152602001908152602001600020600082825461155091906130f6565b925050819055506001600360008473ffffffffffffffffffffffffffffffffffffffff1673ffffffffffffffffffffffffffffffffffffffff16815260200190815260200160002060008282546115a7919061272a565b92505081905550816002600083815260200190815260200160002060006101000a81548173ffffffffffffffffffffffffffffffffffffffff021916908373ffffffffffffffffffffffffffffffffffffffff160217905550808273ffffffffffffffffffffffffffffffffffffffff168473ffffffffffffffffffffffffffffffffffffffff167fddf252ad1be2c89b69c2b068fc378daa952ba7f163c4a11628f55a4df523b3ef60405160405180910390a4611666838383611997565b505050565b6000600660009054906101000a900473ffffffffffffffffffffffffffffffffffffffff16905081600660006101000a81548173ffffffffffffffffffffffffffffffffffffffff021916908373ffffffffffffffffffffffffffffffffffffffff1602179055508173ffffffffffffffffffffffffffffffffffffffff168173ffffffffffffffffffffffffffffffffffffffff167f8be0079c531659141344cd1fd0a4f28419497f9722a3daafe3b4186f6b6457e060405160405180910390a35050565b8173ffffffffffffffffffffffffffffffffffffffff168373ffffffffffffffffffffffffffffffffffffffff1614156117a0576040517f08c379a000000000000000000000000000000000000000000000000000000000815260040161179790613176565b60405180910390fd5b80600560008573ffffffffffffffffffffffffffffffffffffffff1673ffffffffffffffffffffffffffffffffffffffff16815260200190815260200160002060008473ffffffffffffffffffffffffffffffffffffffff1673ffffffffffffffffffffffffffffffffffffffff16815260200190815260200160002060006101000a81548160ff0219169083151502179055508173ffffffffffffffffffffffffffffffffffffffff168373ffffffffffffffffffffffffffffffffffffffff167f17307eab39ab6107e8899845ad3d59bd9653f200f220920489ca2b5937696c31836040516118919190611de4565b60405180910390a3505050565b6118a9848484611404565b6118b58484848461199c565b6118f4576040517f08c379a00000000000000000000000000000000000000000000000000000000081526004016118eb90613208565b60405180910390fd5b50505050565b60606040518060400160405280601d81526020017f646174613a6170706c69636174696f6e2f6a736f6e3b6261736536342c000000815250905090565b6119418383611b33565b61194e600084848461199c565b61198d576040517f08c379a000000000000000000000000000000000000000000000000000000000815260040161198490613208565b60405180910390fd5b505050565b505050565b505050565b60006119bd8473ffffffffffffffffffffffffffffffffffffffff16611d0d565b15611b26578373ffffffffffffffffffffffffffffffffffffffff1663150b7a026119e6611247565b8786866040518563ffffffff1660e01b8152600401611a08949392919061327d565b602060405180830381600087803b158015611a2257600080fd5b505af1925050508015611a5357506040513d601f19601f82011682018060405250810190611a5091906132de565b60015b611ad6573d8060008114611a83576040519150601f19603f3d011682016040523d82523d6000602084013e611a88565b606091505b50600081511415611ace576040517f08c379a0000000000000000000000000000000000000000000000000000000008152600401611ac590613208565b60405180910390fd5b805181602001fd5b63150b7a0260e01b7bffffffffffffffffffffffffffffffffffffffffffffffffffffffff1916817bffffffffffffffffffffffffffffffffffffffffffffffffffffffff191614915050611b2b565b600190505b949350505050565b600073ffffffffffffffffffffffffffffffffffffffff168273ffffffffffffffffffffffffffffffffffffffff161415611ba3576040517f08c379a0000000000000000000000000000000000000000000000000000000008152600401611b9a90613357565b60405180910390fd5b611bac816111db565b15611bec576040517f08c379a0000000000000000000000000000000000000000000000000000000008152600401611be3906133c3565b60405180910390fd5b611bf860008383611992565b6001600360008473ffffffffffffffffffffffffffffffffffffffff1673ffffffffffffffffffffffffffffffffffffffff1681526020019081526020016000206000828254611c48919061272a565b92505081905550816002600083815260200190815260200160002060006101000a81548173ffffffffffffffffffffffffffffffffffffffff021916908373ffffffffffffffffffffffffffffffffffffffff160217905550808273ffffffffffffffffffffffffffffffffffffffff16600073ffffffffffffffffffffffffffffffffffffffff167fddf252ad1be2c89b69c2b068fc378daa952ba7f163c4a11628f55a4df523b3ef60405160405180910390a4611d0960008383611997565b5050565b6000808273ffffffffffffffffffffffffffffffffffffffff163b119050919050565b6000604051905090565b600080fd5b600080fd5b60007fffffffff0000000000000000000000000000000000000000000000000000000082169050919050565b611d7981611d44565b8114611d8457600080fd5b50565b600081359050611d9681611d70565b92915050565b600060208284031215611db257611db1611d3a565b5b6000611dc084828501611d87565b91505092915050565b60008115159050919050565b611dde81611dc9565b82525050565b6000602082019050611df96000830184611dd5565b92915050565b600081519050919050565b600082825260208201905092915050565b60005b83811015611e39578082015181840152602081019050611e1e565b83811115611e48576000848401525b50505050565b6000601f19601f8301169050919050565b6000611e6a82611dff565b611e748185611e0a565b9350611e84818560208601611e1b565b611e8d81611e4e565b840191505092915050565b60006020820190508181036000830152611eb28184611e5f565b905092915050565b6000819050919050565b611ecd81611eba565b8114611ed857600080fd5b50565b600081359050611eea81611ec4565b92915050565b600060208284031215611f0657611f05611d3a565b5b6000611f1484828501611edb565b91505092915050565b600073ffffffffffffffffffffffffffffffffffffffff82169050919050565b6000611f4882611f1d565b9050919050565b611f5881611f3d565b82525050565b6000602082019050611f736000830184611f4f565b92915050565b611f8281611f3d565b8114611f8d57600080fd5b50565b600081359050611f9f81611f79565b92915050565b60008060408385031215611fbc57611fbb611d3a565b5b6000611fca85828601611f90565b9250506020611fdb85828601611edb565b9150509250929050565b6000819050919050565b611ff881611fe5565b811461200357600080fd5b50565b60008135905061201581611fef565b92915050565b60006020828403121561203157612030611d3a565b5b600061203f84828501612006565b91505092915050565b60008060006060848603121561206157612060611d3a565b5b600061206f86828701611f90565b935050602061208086828701611f90565b925050604061209186828701611edb565b9150509250925092565b600080fd5b600080fd5b7f4e487b7100000000000000000000000000000000000000000000000000000000600052604160045260246000fd5b6120dd82611e4e565b810181811067ffffffffffffffff821117156120fc576120fb6120a5565b5b80604052505050565b600061210f611d30565b905061211b82826120d4565b919050565b600067ffffffffffffffff82111561213b5761213a6120a5565b5b61214482611e4e565b9050602081019050919050565b82818337600083830152505050565b600061217361216e84612120565b612105565b90508281526020810184848401111561218f5761218e6120a0565b5b61219a848285612151565b509392505050565b600082601f8301126121b7576121b661209b565b5b81356121c7848260208601612160565b91505092915050565b6000602082840312156121e6576121e5611d3a565b5b600082013567ffffffffffffffff81111561220457612203611d3f565b5b612210848285016121a2565b91505092915050565b61222281611eba565b82525050565b600060208201905061223d6000830184612219565b92915050565b60006020828403121561225957612258611d3a565b5b600061226784828501611f90565b91505092915050565b6000819050919050565b600061229561229061228b84611f1d565b612270565b611f1d565b9050919050565b60006122a78261227a565b9050919050565b60006122b98261229c565b9050919050565b6122c9816122ae565b82525050565b60006020820190506122e460008301846122c0565b92915050565b6122f381611dc9565b81146122fe57600080fd5b50565b600081359050612310816122ea565b92915050565b6000806040838503121561232d5761232c611d3a565b5b600061233b85828601611f90565b925050602061234c85828601612301565b9150509250929050565b600067ffffffffffffffff821115612371576123706120a5565b5b61237a82611e4e565b9050602081019050919050565b600061239a61239584612356565b612105565b9050828152602081018484840111156123b6576123b56120a0565b5b6123c1848285612151565b509392505050565b600082601f8301126123de576123dd61209b565b5b81356123ee848260208601612387565b91505092915050565b6000806000806080858703121561241157612410611d3a565b5b600061241f87828801611f90565b945050602061243087828801611f90565b935050604061244187828801611edb565b925050606085013567ffffffffffffffff81111561246257612461611d3f565b5b61246e878288016123c9565b91505092959194509250565b6000806040838503121561249157612490611d3a565b5b600061249f85828601611f90565b92505060206124b085828601611f90565b9150509250929050565b7f4e487b7100000000000000000000000000000000000000000000000000000000600052602260045260246000fd5b6000600282049050600182168061250157607f821691505b60208210811415612515576125146124ba565b5b50919050565b7f4552433732313a20617070726f76656420717565727920666f72206e6f6e657860008201527f697374656e7420746f6b656e0000000000000000000000000000000000000000602082015250565b6000612577602c83611e0a565b91506125828261251b565b604082019050919050565b600060208201905081810360008301526125a68161256a565b9050919050565b7f4552433732313a20617070726f76616c20746f2063757272656e74206f776e6560008201527f7200000000000000000000000000000000000000000000000000000000000000602082015250565b6000612609602183611e0a565b9150612614826125ad565b604082019050919050565b60006020820190508181036000830152612638816125fc565b9050919050565b7f4552433732313a20617070726f76652063616c6c6572206973206e6f74206f7760008201527f6e6572206e6f7220617070726f76656420666f7220616c6c0000000000000000602082015250565b600061269b603883611e0a565b91506126a68261263f565b604082019050919050565b600060208201905081810360008301526126ca8161268e565b9050919050565b6126da81611fe5565b82525050565b60006020820190506126f560008301846126d1565b92915050565b7f4e487b7100000000000000000000000000000000000000000000000000000000600052601160045260246000fd5b600061273582611eba565b915061274083611eba565b9250827fffffffffffffffffffffffffffffffffffffffffffffffffffffffffffffffff03821115612775576127746126fb565b5b828201905092915050565b7f4552433732313a207472616e736665722063616c6c6572206973206e6f74206f60008201527f776e6572206e6f7220617070726f766564000000000000000000000000000000602082015250565b60006127dc603183611e0a565b91506127e782612780565b604082019050919050565b6000602082019050818103600083015261280b816127cf565b9050919050565b600081905092915050565b600061282882611dff565b6128328185612812565b9350612842818560208601611e1b565b80840191505092915050565b600061285a828461281d565b915081905092915050565b6000612871828561281d565b915061287d828461281d565b91508190509392505050565b7f4552433732313a206f776e657220717565727920666f72206e6f6e657869737460008201527f656e7420746f6b656e0000000000000000000000000000000000000000000000602082015250565b60006128e5602983611e0a565b91506128f082612889565b604082019050919050565b60006020820190508181036000830152612914816128d8565b9050919050565b7f4552433732313a2062616c616e636520717565727920666f7220746865207a6560008201527f726f206164647265737300000000000000000000000000000000000000000000602082015250565b6000612977602a83611e0a565b91506129828261291b565b604082019050919050565b600060208201905081810360008301526129a68161296a565b9050919050565b7f4f776e61626c653a2063616c6c6572206973206e6f7420746865206f776e6572600082015250565b60006129e3602083611e0a565b91506129ee826129ad565b602082019050919050565b60006020820190508181036000830152612a12816129d6565b9050919050565b7f4552433732314d657461646174613a2055524920717565727920666f72206e6f60008201527f6e6578697374656e7420746f6b656e0000000000000000000000000000000000602082015250565b6000612a75602f83611e0a565b9150612a8082612a19565b604082019050919050565b60006020820190508181036000830152612aa481612a68565b9050919050565b600069ffffffffffffffffffff82169050919050565b612aca81612aab565b8114612ad557600080fd5b50565b600081519050612ae781612ac1565b92915050565b600081519050612afc81611fef565b92915050565b600081519050612b1181611ec4565b92915050565b600080600080600060a08688031215612b3357612b32611d3a565b5b6000612b4188828901612ad8565b9550506020612b5288828901612aed565b9450506040612b6388828901612b02565b9350506060612b7488828901612b02565b9250506080612b8588828901612ad8565b9150509295509295909350565b7f7b226e616d65223a220000000000000000000000000000000000000000000000600082015250565b6000612bc8600983612812565b9150612bd382612b92565b600982019050919050565b7f6c7563726174697665206e667400000000000000000000000000000000000000600082015250565b6000612c14600d83612812565b9150612c1f82612bde565b600d82019050919050565b7f222c20226465736372697074696f6e223a22416e204e4654207468617420697360008201527f206175746f6d61746963616c6c792067656e6572617465642066726f6d20776560208201527f627369746520696d61676573222c200000000000000000000000000000000000604082015250565b6000612cac604f83612812565b9150612cb782612c2a565b604f82019050919050565b7f2261747472696275746573223a205b7b2274726169745f74797065223a20226360008201527f6f6f6c6e657373222c202276616c7565223a203130307d5d2c2022696d61676560208201527f223a220000000000000000000000000000000000000000000000000000000000604082015250565b6000612d44604383612812565b9150612d4f82612cc2565b604382019050919050565b7f227d000000000000000000000000000000000000000000000000000000000000600082015250565b6000612d90600283612812565b9150612d9b82612d5a565b600282019050919050565b6000612db182612bbb565b9150612dbc82612c07565b9150612dc782612c9f565b9150612dd282612d37565b9150612dde828461281d565b9150612de982612d83565b915081905092915050565b7f4f776e61626c653a206e6577206f776e657220697320746865207a65726f206160008201527f6464726573730000000000000000000000000000000000000000000000000000602082015250565b6000612e50602683611e0a565b9150612e5b82612df4565b604082019050919050565b60006020820190508181036000830152612e7f81612e43565b9050919050565b7f4e487b7100000000000000000000000000000000000000000000000000000000600052601260045260246000fd5b6000612ec082611eba565b9150612ecb83611eba565b925082612edb57612eda612e86565b5b828204905092915050565b6000612ef182611eba565b9150612efc83611eba565b9250817fffffffffffffffffffffffffffffffffffffffffffffffffffffffffffffffff0483118215151615612f3557612f346126fb565b5b828202905092915050565b7f4552433732313a206f70657261746f7220717565727920666f72206e6f6e657860008201527f697374656e7420746f6b656e0000000000000000000000000000000000000000602082015250565b6000612f9c602c83611e0a565b9150612fa782612f40565b604082019050919050565b60006020820190508181036000830152612fcb81612f8f565b9050919050565b7f4552433732313a207472616e736665722066726f6d20696e636f72726563742060008201527f6f776e6572000000000000000000000000000000000000000000000000000000602082015250565b600061302e602583611e0a565b915061303982612fd2565b604082019050919050565b6000602082019050818103600083015261305d81613021565b9050919050565b7f4552433732313a207472616e7366657220746f20746865207a65726f2061646460008201527f7265737300000000000000000000000000000000000000000000000000000000602082015250565b60006130c0602483611e0a565b91506130cb82613064565b604082019050919050565b600060208201905081810360008301526130ef816130b3565b9050919050565b600061310182611eba565b915061310c83611eba565b92508282101561311f5761311e6126fb565b5b828203905092915050565b7f4552433732313a20617070726f766520746f2063616c6c657200000000000000600082015250565b6000613160601983611e0a565b915061316b8261312a565b602082019050919050565b6000602082019050818103600083015261318f81613153565b9050919050565b7f4552433732313a207472616e7366657220746f206e6f6e20455243373231526560008201527f63656976657220696d706c656d656e7465720000000000000000000000000000602082015250565b60006131f2603283611e0a565b91506131fd82613196565b604082019050919050565b60006020820190508181036000830152613221816131e5565b9050919050565b600081519050919050565b600082825260208201905092915050565b600061324f82613228565b6132598185613233565b9350613269818560208601611e1b565b61327281611e4e565b840191505092915050565b60006080820190506132926000830187611f4f565b61329f6020830186611f4f565b6132ac6040830185612219565b81810360608301526132be8184613244565b905095945050505050565b6000815190506132d881611d70565b92915050565b6000602082840312156132f4576132f3611d3a565b5b6000613302848285016132c9565b91505092915050565b7f4552433732313a206d696e7420746f20746865207a65726f2061646472657373600082015250565b6000613341602083611e0a565b915061334c8261330b565b602082019050919050565b6000602082019050818103600083015261337081613334565b9050919050565b7f4552433732313a20746f6b656e20616c7265616479206d696e74656400000000600082015250565b60006133ad601c83611e0a565b91506133b882613377565b602082019050919050565b600060208201905081810360008301526133dc816133a0565b905091905056fe4142434445464748494a4b4c4d4e4f505152535455565758595a6162636465666768696a6b6c6d6e6f707172737475767778797a303132333435363738392b2fa264697066735822122008dc12776f1b9e158c73fc09a4c44cade4ae9370d47ba3e89cb518def1d4d83e64736f6c634300080800334142434445464748494a4b4c4d4e4f505152535455565758595a6162636465666768696a6b6c6d6e6f707172737475767778797a303132333435363738392b2f",
  "linkReferences": {},
  "deployedLinkReferences": {}
}